{
  "_format": "hh-sol-artifact-1",
  "contractName": "Petter",
  "sourceName": "contracts/Petter.sol",
  "abi": [
    {
      "inputs": [
        {
          "internalType": "uint256",
          "name": "_tokenId",
          "type": "uint256"
        },
        {
          "internalType": "address",
          "name": "_petter",
          "type": "address"
        }
      ],
      "name": "addPetter",
      "outputs": [],
      "stateMutability": "nonpayable",
      "type": "function"
    },
    {
      "inputs": [
        {
          "internalType": "uint256",
          "name": "_tokenId",
          "type": "uint256"
        }
      ],
      "name": "getNumPetters",
      "outputs": [
        {
          "internalType": "uint256",
          "name": "",
          "type": "uint256"
        }
      ],
      "stateMutability": "view",
      "type": "function"
    },
    {
      "inputs": [
        {
          "internalType": "uint256",
          "name": "_tokenId",
          "type": "uint256"
        }
      ],
      "name": "getPetters",
      "outputs": [
        {
          "internalType": "address[]",
          "name": "",
          "type": "address[]"
        }
      ],
      "stateMutability": "view",
      "type": "function"
    },
    {
      "inputs": [
        {
          "internalType": "uint256",
          "name": "_tokenId",
          "type": "uint256"
        },
        {
          "internalType": "address",
          "name": "_petter",
          "type": "address"
        }
      ],
      "name": "isPetter",
      "outputs": [
        {
          "internalType": "bool",
          "name": "",
          "type": "bool"
        }
      ],
      "stateMutability": "view",
      "type": "function"
    },
    {
      "inputs": [],
      "name": "name",
      "outputs": [
        {
          "internalType": "string",
          "name": "",
          "type": "string"
        }
      ],
      "stateMutability": "view",
      "type": "function"
    },
    {
      "inputs": [
        {
          "internalType": "uint256",
          "name": "_tokenId",
          "type": "uint256"
        },
        {
          "internalType": "address",
          "name": "_petter",
          "type": "address"
        }
      ],
      "name": "removePetter",
      "outputs": [],
      "stateMutability": "nonpayable",
      "type": "function"
    },
    {
      "inputs": [
        {
          "internalType": "uint256",
          "name": "_tokenId",
          "type": "uint256"
        }
      ],
      "name": "setHead",
      "outputs": [],
      "stateMutability": "nonpayable",
      "type": "function"
    }
  ],
  "bytecode": "0x60806040526040518060400160405280600681526020017f5065747465720000000000000000000000000000000000000000000000000000815250600090805190602001906200005192919062000066565b503480156200005f57600080fd5b506200017b565b828054620000749062000116565b90600052602060002090601f016020900481019282620000985760008555620000e4565b82601f10620000b357805160ff1916838001178555620000e4565b82800160010185558215620000e4579182015b82811115620000e3578251825591602001919060010190620000c6565b5b509050620000f39190620000f7565b5090565b5b8082111562000112576000816000905550600101620000f8565b5090565b600060028204905060018216806200012f57607f821691505b602082108114156200014657620001456200014c565b5b50919050565b7f4e487b7100000000000000000000000000000000000000000000000000000000600052602260045260246000fd5b610ff7806200018b6000396000f3fe608060405234801561001057600080fd5b506004361061007d5760003560e01c80638a8700b81161005b5780638a8700b8146100d857806391a46893146100f4578063b9bd54ed14610124578063d7de6d49146101545761007d565b806306fdde03146100825780632cbd244b146100a057806351c3d131146100bc575b600080fd5b61008a610184565b6040516100979190610d72565b60405180910390f35b6100ba60048036038101906100b59190610c1d565b610212565b005b6100d660048036038101906100d19190610c1d565b6103f0565b005b6100f260048036038101906100ed9190610bf4565b6105ea565b005b61010e60048036038101906101099190610c1d565b6106da565b60405161011b9190610d57565b60405180910390f35b61013e60048036038101906101399190610bf4565b610784565b60405161014b9190610d94565b60405180910390f35b61016e60048036038101906101699190610bf4565b6107a1565b60405161017b9190610d35565b60405180910390f35b6000805461019190610ea9565b80601f01602080910402602001604051908101604052809291908181526020018280546101bd90610ea9565b801561020a5780601f106101df5761010080835404028352916020019161020a565b820191906000526020600020905b8154815290600101906020018083116101ed57829003601f168201915b505050505081565b61021c82826106da565b61022557600080fd5b600061023183836109db565b90506001600084815260200190815260200160002060008373ffffffffffffffffffffffffffffffffffffffff1673ffffffffffffffffffffffffffffffffffffffff16815260200190815260200160002060009054906101000a900473ffffffffffffffffffffffffffffffffffffffff166001600085815260200190815260200160002060008373ffffffffffffffffffffffffffffffffffffffff1673ffffffffffffffffffffffffffffffffffffffff16815260200190815260200160002060006101000a81548173ffffffffffffffffffffffffffffffffffffffff021916908373ffffffffffffffffffffffffffffffffffffffff16021790555060006001600085815260200190815260200160002060008473ffffffffffffffffffffffffffffffffffffffff1673ffffffffffffffffffffffffffffffffffffffff16815260200190815260200160002060006101000a81548173ffffffffffffffffffffffffffffffffffffffff021916908373ffffffffffffffffffffffffffffffffffffffff1602179055506002600084815260200190815260200160002060008154809291906103e690610e7f565b9190505550505050565b6003600083815260200190815260200160002060009054906101000a900460ff168015610424575061042282826106da565b155b61042d57600080fd5b600160008381526020019081526020016000206000600173ffffffffffffffffffffffffffffffffffffffff1673ffffffffffffffffffffffffffffffffffffffff16815260200190815260200160002060009054906101000a900473ffffffffffffffffffffffffffffffffffffffff166001600084815260200190815260200160002060008373ffffffffffffffffffffffffffffffffffffffff1673ffffffffffffffffffffffffffffffffffffffff16815260200190815260200160002060006101000a81548173ffffffffffffffffffffffffffffffffffffffff021916908373ffffffffffffffffffffffffffffffffffffffff16021790555080600160008481526020019081526020016000206000600173ffffffffffffffffffffffffffffffffffffffff1673ffffffffffffffffffffffffffffffffffffffff16815260200190815260200160002060006101000a81548173ffffffffffffffffffffffffffffffffffffffff021916908373ffffffffffffffffffffffffffffffffffffffff1602179055506002600083815260200190815260200160002060008154809291906105e190610edb565b91905055505050565b600015156003600083815260200190815260200160002060009054906101000a900460ff1615151461061b57600080fd5b60018060008381526020019081526020016000206000600173ffffffffffffffffffffffffffffffffffffffff1673ffffffffffffffffffffffffffffffffffffffff16815260200190815260200160002060006101000a81548173ffffffffffffffffffffffffffffffffffffffff021916908373ffffffffffffffffffffffffffffffffffffffff16021790555060016003600083815260200190815260200160002060006101000a81548160ff02191690831515021790555050565b60008073ffffffffffffffffffffffffffffffffffffffff166001600085815260200190815260200160002060008473ffffffffffffffffffffffffffffffffffffffff1673ffffffffffffffffffffffffffffffffffffffff16815260200190815260200160002060009054906101000a900473ffffffffffffffffffffffffffffffffffffffff1673ffffffffffffffffffffffffffffffffffffffff161415905092915050565b600060026000838152602001908152602001600020549050919050565b60606000600260008481526020019081526020016000205467ffffffffffffffff8111156107f8577f4e487b7100000000000000000000000000000000000000000000000000000000600052604160045260246000fd5b6040519080825280602002602001820160405280156108265781602001602082028036833780820191505090505b5090506000600160008581526020019081526020016000206000600173ffffffffffffffffffffffffffffffffffffffff1673ffffffffffffffffffffffffffffffffffffffff16815260200190815260200160002060009054906101000a900473ffffffffffffffffffffffffffffffffffffffff16905060005b600173ffffffffffffffffffffffffffffffffffffffff168273ffffffffffffffffffffffffffffffffffffffff16146109d05781838281518110610910577f4e487b7100000000000000000000000000000000000000000000000000000000600052603260045260246000fd5b602002602001019073ffffffffffffffffffffffffffffffffffffffff16908173ffffffffffffffffffffffffffffffffffffffff16815250506001600086815260200190815260200160002060008373ffffffffffffffffffffffffffffffffffffffff1673ffffffffffffffffffffffffffffffffffffffff16815260200190815260200160002060009054906101000a900473ffffffffffffffffffffffffffffffffffffffff16915080806109c890610edb565b9150506108a2565b508192505050919050565b6000806001905060005b600173ffffffffffffffffffffffffffffffffffffffff166001600087815260200190815260200160002060008473ffffffffffffffffffffffffffffffffffffffff1673ffffffffffffffffffffffffffffffffffffffff16815260200190815260200160002060009054906101000a900473ffffffffffffffffffffffffffffffffffffffff1673ffffffffffffffffffffffffffffffffffffffff1614610bbd578373ffffffffffffffffffffffffffffffffffffffff166001600087815260200190815260200160002060008473ffffffffffffffffffffffffffffffffffffffff1673ffffffffffffffffffffffffffffffffffffffff16815260200190815260200160002060009054906101000a900473ffffffffffffffffffffffffffffffffffffffff1673ffffffffffffffffffffffffffffffffffffffff161415610b37578192505050610bc4565b6001600086815260200190815260200160002060008373ffffffffffffffffffffffffffffffffffffffff1673ffffffffffffffffffffffffffffffffffffffff16815260200190815260200160002060009054906101000a900473ffffffffffffffffffffffffffffffffffffffff1691508080610bb590610edb565b9150506109e5565b5060009150505b92915050565b600081359050610bd981610f93565b92915050565b600081359050610bee81610faa565b92915050565b600060208284031215610c0657600080fd5b6000610c1484828501610bdf565b91505092915050565b60008060408385031215610c3057600080fd5b6000610c3e85828601610bdf565b9250506020610c4f85828601610bca565b9150509250929050565b6000610c658383610c71565b60208301905092915050565b610c7a81610e04565b82525050565b6000610c8b82610dbf565b610c958185610de2565b9350610ca083610daf565b8060005b83811015610cd1578151610cb88882610c59565b9750610cc383610dd5565b925050600181019050610ca4565b5085935050505092915050565b610ce781610e16565b82525050565b6000610cf882610dca565b610d028185610df3565b9350610d12818560208601610e4c565b610d1b81610f82565b840191505092915050565b610d2f81610e42565b82525050565b60006020820190508181036000830152610d4f8184610c80565b905092915050565b6000602082019050610d6c6000830184610cde565b92915050565b60006020820190508181036000830152610d8c8184610ced565b905092915050565b6000602082019050610da96000830184610d26565b92915050565b6000819050602082019050919050565b600081519050919050565b600081519050919050565b6000602082019050919050565b600082825260208201905092915050565b600082825260208201905092915050565b6000610e0f82610e22565b9050919050565b60008115159050919050565b600073ffffffffffffffffffffffffffffffffffffffff82169050919050565b6000819050919050565b60005b83811015610e6a578082015181840152602081019050610e4f565b83811115610e79576000848401525b50505050565b6000610e8a82610e42565b91506000821415610e9e57610e9d610f24565b5b600182039050919050565b60006002820490506001821680610ec157607f821691505b60208210811415610ed557610ed4610f53565b5b50919050565b6000610ee682610e42565b91507fffffffffffffffffffffffffffffffffffffffffffffffffffffffffffffffff821415610f1957610f18610f24565b5b600182019050919050565b7f4e487b7100000000000000000000000000000000000000000000000000000000600052601160045260246000fd5b7f4e487b7100000000000000000000000000000000000000000000000000000000600052602260045260246000fd5b6000601f19601f8301169050919050565b610f9c81610e04565b8114610fa757600080fd5b50565b610fb381610e42565b8114610fbe57600080fd5b5056fea26469706673582212200bee9b0b9d18415bf82a44e029b8eb7e206361447c197c88a83c821b9d8e3c6e64736f6c63430008010033",
  "linkReferences": {},
  "deployedLinkReferences": {}
}